:020000040800F2
:1000000020190020C1010008C90100088B02000866
:10001000CD010008CF010008D10100080000000058
:10002000000000000000000000000000D3010008F4
:10003000D501000800000000130200089D0F000811
:10004000DB010008DB010008DB010008DB01000820
:10005000DB010008DB010008DB010008DB01000810
:10006000DB010008DB010008DB010008DB01000800
:10007000DB010008DB010008DB010008DB010008F0
:10008000DB010008DB010008DB010008DB010008E0
:10009000DB010008DB010008DB010008DB010008D0
:1000A000DB010008DB010008DB010008DB010008C0
:1000B000DB010008DB010008DB010008DB010008B0
:1000C000DB010008DB010008DB010008DB010008A0
:1000D000DB010008DB010008DB010008DB01000890
:1000E000DB010008DB010008DB010008DB01000880
:1000F000DB010008DB010008DB010008DB01000870
:10010000DB010008DB010008DB010008DB0100085F
:10011000DB010008DB010008DB010008DB0100084F
:10012000DB010008DB010008DB010008DB0100083F
:10013000DB010008DB010008DB010008DB0100082F
:10014000DB010008DB010008DB010008DB0100081F
:10015000DB010008DB010008DB010008DB0100080F
:10016000DB010008DB010008DB010008DB010008FF
:10017000DB010008DB010008DB010008DB010008EF
:10018000DB010008DB010008DB010008DB010008DF
:10019000DB010008DB010008DB010008DB010008CF
:1001A000DB010008DB010008DB010008DFF80CD0F0
:1001B00000F0B4F8004800477F0300082019002031
:1001C0000648804706480047FEE7FEE7FEE7FEE7F1
:1001D000FEE7FEE7FEE7FEE7FEE7FEE7B10F0008F9
:1001E000AD010008EFF3108072B6704780F31088FD
:1001F00070472B4A1368012B04D04FF001031360A2
:10020000284A1060284A116028484FF08051016048
:100210007047EFF3108272B62148016891B14FF038
:10022000000101601F48016829B1EFF3098121E94C
:10023000F00F006801601C4909680968B1E8F00F17
:1002400081F3098882F310884EF0040E7047164936
:10025000086014494FF00000086011494FF0010098
:10026000086013484FF47F01D0F8002041EA0201F2
:1002700001600E484FF0805101600E480068006830
:1002800080F3088861B662B67047EFF3098000B565
:1002900001F030FC5DF804EB4EF0040E70470000F6
:1002A000BC000020B4000020B800002004ED00E0F5
:1002B00020ED00E008ED00E02DE9F05F05460020AC
:1002C00092469B4688460646814640241BE02846C7
:1002D00041464746224600F042F853465A46C01A65
:1002E000914110D311461846224600F029F82D1AE4
:1002F00067EB01084F4622460120002100F020F85C
:1003000017EB00094E41201EA4F10104DFDC484632
:1003100031462A464346BDE8F09F0000064C074D93
:1003200006E0E06840F0010394E8070098471034C5
:10033000AC42F6D3FFF73EFFBC2D0008DC2D0008D1
:10034000202A04DB203A00FA02F100207047914095
:10035000C2F1200320FA03F3194390407047202A8A
:1003600004DB203A21FA02F00021704721FA02F35F
:10037000D040C2F12002914008431946704710B5A1
:10038000FFF730FF02F0F8FB002010BD70B586B01B
:100390000121084600F01CFD0121102000F034FD71
:1003A00000248DF8164001208DF8170002258DF8E5
:1003B00015508DF81450400204901C4E04A930468C
:1003C00000F038F88DF814506902049104A9304601
:1003D00000F030F807220A21304600F069F80722C1
:1003E0000921304600F064F84FF4E1300090ADF898
:1003F0000440ADF80640ADF80840ADF80C400C20C4
:10040000ADF80A000A4C6946204600F027FE00F0CD
:100410008DFC012240F22551204600F004FE01210E
:10042000204600F0EDFD06B070BD00000000024067
:10043000001001402DE9F041002201274FF0030C8C
:1004400007FA02F50B682B40AB422CD1066853002B
:100450000CFA03F4A64306600E79D0F800809E40A3
:1004600046EA080606600E79012E01D0022E12D14E
:100470008668A64386604E79D0F808809E4046EA9A
:10048000080686604668AE43466045688E799640A9
:10049000B6B235434560C568A543C560CC799C407C
:1004A000C3681C43C460521C102AC9D3BDE8F08144
:1004B00010B54B07DB0E9A40C90800EB8100016ABA
:1004C0000F249C40A1430162016A1143016210BDE7
:1004D000002904D0018841F48061018070470188BF
:1004E00021F4806101807047034600209A8A1B8BAB
:1004F0001B041A4322F07F42914300D10120704730
:10050000C94381827047002904D0018841F001016C
:1005100001807047018821F00101018070470000CF
:100520002DE9F74F05461446634F4FF42048C7F8AE
:1005300004804FF40036DFF8849108E07868411EAB
:10054000796004D2BDE8FE4F092000F0EDBA3146D3
:10055000484600F035FA0028F0D10121484600F065
:1005600017FA4FF4805AC7F804A0554E08E078688F
:10057000411E796004D2BDE8FE4F0A2000F0D4BAD3
:1005800031464846FFF7B0FF0028F0D03978002206
:10059000484600F0BEFAC7F804A0DFF828B108E02A
:1005A0007868411E796004D2BDE8FE4F0B2000F050
:1005B000BBBA59464846FFF797FF0028F0D0012103
:1005C0004846FFF7A0FF4846019900F0ABFAC7F88C
:1005D00004A0DFF8F0B00BF1020B08E07868401ED1
:1005E000786004D2BDE8FE4F0C2000F09DBA594659
:1005F0004846FFF779FF0028F0D00121484600F077
:10060000C7F9C7F804A008E07868411E796004D2F1
:10061000BDE8FE4F0D2000F087BA31464846FFF78F
:1006200063FF0028F0D039780122484600F071FAC3
:10063000C7F804A0224E761C08E07868411E796055
:1006400004D2BDE8FE4F0E2000F06EBA3146484697
:10065000FFF74AFF0028F0D024E0012C07D1002149
:100660004846FFF735FF0121484600F09DF9C7F8DD
:100670000480134E3F3608E07B68581E786004D231
:10068000BDE8FE4F032000F04FBA31464846FFF761
:100690002BFF0028F0D0484600F038FA05F8010B8F
:1006A000641EA4B2002CD8D101214846FFF710FFE8
:1006B0000120BDE8FE8F000028000020005400400B
:1006C00001000300820007002DE9F04105460C46B9
:1006D00004F00700C0F10807C2F3C70602F00708DC
:1006E000002811D09EB3D01BC0F3C70600F0070846
:1006F000F7B33A462146284600F05CF800F0F0F8DF
:10070000E019C4B23D4437E096B942462146284636
:1007100000F050F8BDE8F04100F0E2B808222146B0
:10072000284600F047F800F0DBF80834E4B208355A
:10073000761EF6B2F2D2B8F1000F2CD04246214616
:10074000284600F037F8BDE8F04100F0C9B842464D
:100750002146284600F02EF8BDE8F04100F0C0B870
:1007600008222146284600F025F800F0B9F800E0FC
:1007700002E00834E4B20835761EF6B2F0D2B8F1E1
:10078000000F08D042462146284600F013F8BDE885
:10079000F04100F0A5B8BDE8F081000010B500F010
:1007A000C9F800F085F90249A020088010BD0000BA
:1007B000280000202DE9F04705460F461446444E18
:1007C0004FF4204070604FF40038DFF808A108E0D3
:1007D0007068411E716004D2BDE8F047042000F04B
:1007E000A3B94146504600F0EBF80028F0D10121B2
:1007F000504600F0CDF84FF48059C6F80490DFF869
:10080000D88008E07068411E716004D2BDE8F047EE
:10081000052000F089B941465046FFF765FE0028E3
:10082000F0D031780022504600F073F9C6F80490F9
:10083000DFF8A88008E07068411E716004D2BDE84E
:10084000F047062000F070B941465046FFF74CFED5
:100850000028F0D039465746384600F063F9C6F80C
:100860000490DFF8788008F1020808E07068401E04
:10087000706004D2BDE8F047072000F055B941464A
:100880003846FFF731FE0028F0D016E029783846C8
:1008900000F048F96D1CC6F8049008E07068411E2D
:1008A000716004D2BDE8F047082000F03DB9414630
:1008B0003846FFF719FE0028F0D0641EE4B2E5D2F6
:1008C0000121384600F070F80120BDE8F0870000F3
:1008D00028000020005400400100030082000700AF
:1008E00038B500200090104D104C0121284600F032
:1008F0004FF81421284600F001F9009021780022D9
:10090000284600F006F91421284600F0F7F8800781
:10091000EBD507492846FFF7F3FD2846BDE83840E8
:10092000012100F041B800000054004028000020E0
:10093000000400101CB50121480500F057FA012100
:10094000022000F045FA114C042206212046FFF750
:10095000AFFD042207212046FFF7AAFD40210091A8
:1009600002218DF804108DF8051001218DF8061074
:1009700000218DF8071069462046FFF75BFD8021B6
:10098000009169462046FFF755FD1CBD000402405A
:10099000002904D0018841F48071018070470188EA
:1009A00021F4807101807047002904D0018841F44E
:1009B000007101807047018821F400710180704747
:1009C0000CB50246002000920A0F019221F07F41EF
:1009D000019A002A03D0009A1432009203E0090C15
:1009E000009A18320092009A12680A4200D0012040
:1009F0000CBD00007FB504460D46A08820F03F06E0
:100A0000684600F00FFA02982749B0FBF1F189B26D
:100A10000E43A680228822F001022280234B2A68FE
:100A20009A4209D85200B0FBF2F080B2042800D2FA
:100A30000420491C218423E0EB88A3F53F46FF3EB8
:100A40000BD002EBC20303EB0212B0FBF2F080B258
:100A500040F48040020506D007E002EB4202B0FB02
:100A6000F2F080B2F6E740F0010040F400404FF4AD
:100A7000967251434FF47A72B1FBF2F1491C218412
:100A8000A083208840F00100208020884FF6F531B7
:100A90000840A9886A89114301432180A8892989CE
:100AA000084320817FBD000040420F00A086010066
:100AB0001FB50020ADF804004BF6FF70ADF806003E
:100AC0000A20ADF808004FF48060ADF80A0000017C
:100AD000ADF80C0007480090074C69462046FFF728
:100AE00089FF01212046FFF70EFD01212046FFF777
:100AF000EFFC1FBD801A06000054004008B50090AE
:100B00000098084400900098008808BD008AC0B290
:100B10007047002A02D041F0010101E001F0FE011E
:100B2000018270470182704710B5014602A000F0B3
:100B3000F7FA002010BD00003C3C2D454550524FB7
:100B40004D2D4552524F522D3E3E2049324320B545
:100B5000C8B4FDB3ACCAB1216572726F72436F64E1
:100B600065203D2025640A0070B523A000F0D8FA66
:100B70000024294DE1B2295528A000F0D1FAE04324
:100B8000000702D127A000F0CBFA641CA4B2FF2C0E
:100B9000F0D94FF48074224600211F48FFF794FDDE
:100BA00021A000F0BDFA27A000F0BAFA22460021E9
:100BB0002C48FFF7B5FC00242A4E285D315D8142A8
:100BC00007D016A000F0ACFA27A000F0A9FA002088
:100BD00070BD12A000F0A4FAE043000702D111A0FA
:100BE00000F09EFA641CA4B2FF2CE6D92DA000F000
:100BF00097FA012070BD00003C3C2D454550524FF6
:100C00004D2D494E464F2D3E3E20D0B4C8EBB5C4C5
:100C1000CAFDBEDD0A000000C41000203078253077
:100C2000325820000A0D00003C3C2D454550524FE3
:100C30004D2D494E464F2D3E3E20D0B4B3C9B9A6E6
:100C40000A0000003C3C2D454550524F4D2D494E69
:100C5000464F2D3E3E20B6C1B3F6B5C4CAFDBEDD3B
:100C60000A000000C41100203C3C2D454550524F65
:100C70004D2D4552524F522D3E3E20B4EDCEF33A0B
:100C800049324320454550524F4DD0B4C8EBD3EBC9
:100C9000B6C1B3F6B5C4CAFDBEDDB2BBD2BBD6C2C7
:100CA0000A0000003C3C2D454550524F4D2D494E09
:100CB000464F2D3E3E204932432841543234433082
:100CC0003229B6C1D0B4B2E2CAD4B3C9B9A60A00B7
:100CD0002DE9FC410121802000F07AF84FF4806476
:100CE000009401208DF8040000218DF806108DF885
:100CF00007008DF805100C4F69463846FFF79AFB40
:100D00006600009669463846FFF794FBA5000095FB
:100D100069463846FFF78EFB03481830048006808A
:100D20000580BDE8FC810000001C024008B54FF4BE
:100D3000A06000F043F825208DF8000001208DF818
:100D400001008DF802008DF80300684600F002F8FB
:100D500008BD000030B50F23C27801250178002AB4
:100D60001FD0154A126802F4E062C2F5E062C2F3D5
:100D70000722C2F10404D3404278A24084781C4088
:100D80001443220101F1E02181F80024007800F0F1
:100D90001F018D404009800000F1E020C0F80051A3
:100DA00030BD01F01F0085404809800000F1E020BF
:100DB000C0F8805130BD00000CED00E0024908434E
:100DC00002490860704700000000FA050CED00E0E1
:100DD000054A002903D0116801431160704711686A
:100DE000814311607047000030380240054A0029F5
:100DF00003D011680143116070471168814311608D
:100E00007047000040380240054A002903D01168AD
:100E10000143116070471168814311607047000001
:100E20004438024070B5244B196801F00C01234C82
:100E300000291ED0224E04291DD008291DD004608F
:100E4000196801F0F00109091E4A545C0168E1408B
:100E500041601C6804F4E054A40A145D21FA04F40F
:100E600084601B6803F460435B0BD25CD140C160BB
:100E700070BD0460E4E70660E2E70F4A121F1168E4
:100E8000C1F38055116801F03F0135B1B6FBF1F1B6
:100E90001468C4F38814614305E0B4FBF1F11468ED
:100EA000C4F3881461431268C2F30142521C520019
:100EB000B1FBF2F10160C3E7083802400024F400FE
:100EC00040787D01140000201CB5002101910091A3
:100ED0002E4A106840F4803010604FF4A043106830
:100EE00000F4003000900198401C0190009810B967
:100EF00001989842F3D11068800302D50120009038
:100F000000E00091009801283FD12048403001685E
:100F100041F0805101601E49086840F4404008607B
:100F20001A48083003680360036843F40043036011
:100F3000036843F4A0530360041F164B2360136837
:100F400043F08073136013689B01FCD50A6842F478
:100F500080320A604A68D203FCD50A6842F4003243
:100F60000A604A689203FCD50B4A40F20571116091
:100F7000016821F003010160016841F00201016094
:100F80000168C1F381010229FAD11CBD0038024079
:100F900000700040195A4007003C024010B500F0B4
:100FA00049FE01F08BFBBDE8104000F051BE00008F
:100FB00010B50F48016841F0010101600C4A0021A1
:100FC0000832116002680B4B1A400260031D0A4A86
:100FD0001A60026822F48022026005480C30016029
:100FE000FFF772FF05494FF00060086010BD000078
:100FF00000380240FFFFF6FE1030002408ED00E04C
:10100000002904D0818941F4005181817047818990
:1010100021F40051818170470246002012880A4263
:1010200000D00120704710B540F66A13C1F3421397
:1010300001F01F040121A140012B07D0022B07D092
:1010400014303AB102680A43026010BD0C30F8E770
:101050001030F6E702688A43026010BD7FB504468F
:101060000D46208A20F44051E88808432082A08958
:1010700041F20C618843A9882A8911436A89024395
:101080001143A181A08A20F44071A8890843A0825D
:101090006846FFF7C7FE1E48844202D01D488442BE
:1010A00001D1039800E00298A189090408D500EB5A
:1010B000C00101EB001029684900B0FBF1F007E026
:1010C00000EBC00101EB001029688900B0FBF1F0D2
:1010D0006422B0FBF2F109010B096FF018056B43B4
:1010E00000EB8300A3891D044FF0320307D503EB07
:1010F000C000B0FBF2F000F00700084306E003EB8D
:101100000010B0FBF2F000F00F00084320817FBD1B
:101110000010014000140140C1F3080181807047B4
:101120000FB4054B10B503A9044A029800F046F825
:1011300010BC5DF814FB0000E1160008C0000020A0
:10114000002807D00F4910F0FF0F05D0C0B2085C8F
:10115000401C70470020704710F47F4F04D0C0F34C
:101160000720085C0930704710F47F0F04D0C0F3EB
:101170000740085C1130704701EB106000781930AF
:1011800070470000882C000802E008C8121F08C140
:10119000002AFAD170477047002001E001C1121FF8
:1011A000002AFBD17047000003480168814201D04A
:1011B00001207047002070479C0000202DE9FF4F60
:1011C0008DB00F460546002606E025280BD0DDE948
:1011D0000F1290476D1C761C28780028F5D111B0AD
:1011E0003046BDE8F08F0024A246A1460122EC491A
:1011F00000E0044315F8013F203B02FA03F00842E7
:10120000F7D128782A2810D06FF02F022878A0F183
:101210003001092914D80AEB8A0102EB410144F09C
:10122000020400EB010A6D1CF0E701CF5FEA000A3F
:1012300003D544F40054CAF1000A44F002046D1CC2
:1012400028782E2817D115F8010F44F004042A2815
:101250000ED06FF02F022878A0F1300109290AD8AA
:1012600009EB890102EB410100EB01096D1CF2E77A
:1012700057F8049B6D1C28786C280FD006DC4C288E
:1012800017D068280DD06A2814D104E0742810D033
:101290007A280FD10DE044F400140AE044F48014DD
:1012A00001E044F440146978814202D104F58014CD
:1012B0006D1C6D1C2A786E2A1FD00CDC632A31D07D
:1012C00004DC002A8BD0582A11D1A3E0642A68D00C
:1012D000692A0CD165E0732A2ED004DC6F2A73D002
:1012E000702A04D19BE0752A6FD0782A6ED0104600
:1012F000DDE90F129047761C50E1C4F3025002283A
:1013000006D0032809D0042801CF09D0066045E1A2
:1013100001CFF117C0E9006140E101CF06803DE156
:1013200006703BE117F8040B8DF8000000208DF8E3
:101330000100EB46012003E057F804BB4FF0FF30FB
:1013400061074FF0000102D40DE008F10101884669
:1013500049450FDA8045F8DB1BF808100029F4D165
:1013600008E008F1010188468142FADB1BF8081009
:101370000029F6D1DDE90F23AAEB080081462146BA
:1013800000F036F9304400EB080604E0DDE90F1206
:101390001BF8010B9047B8F10108F7D221464846E7
:1013A000F7E00A21C4F302534FF0000B0891022B1F
:1013B00004D001CFC117032B09D00AE0FF1D27F08D
:1013C0000707F7E8020108E032E01FE020E000B282
:1013D000C117042B01D140B2C117031E71F10003E4
:1013E00007DA4FF0000CD0EB0C006CEB01012D2361
:1013F00002E0230504D52B238DF82430012303E0DC
:10140000E30701D02023F7E7984658E00A2110E0CF
:1014100010210EE010204FF0000B08900CE010217E
:101420004FF0000B44F004044FF00809089103E06A
:1014300008214FF0000B0891C4F30253022B04D093
:1014400001CF0021032B06D006E0FF1D27F0070780
:10145000F7E8020103E080B2042B00D1C0B24FF0E4
:10146000000823072BD5702A07D0DDF820C08CF0A8
:10147000100C5CEA0B0C05D00EE040238DF82430F4
:10148000012308E050EA010306D030238DF8243010
:101490008DF8252002239846DDF820C08CF0080C3A
:1014A0005CEA0B0C0BD150EA010301D1630706D5AE
:1014B00030238DF824304FF00108A9F10109582A92
:1014C00004D038A20B9208AA0A920BE03AA2F9E7DC
:1014D0005B46089AFEF7F0FE0B9B9B5C0A9A521E35
:1014E0000A92137050EA0102F2D10A98ADEB0000A3
:1014F00000F1200B600702D524F4803401E04FF0A6
:101500000109D94502DDA9EB0B0000E0002000EB4A
:101510000B0141440890AAEB010AE00306D4DDE97F
:101520000F232146504600F063F806444FF00009AF
:1015300008E009A911F80900DDE90F12904709F147
:101540000109761CC145F4DBE0030CD5DDE90F236E
:101550002146504600F04CF8064404E0DDE90F1245
:1015600030209047761C0899481E08900029F5DC29
:1015700008E00A980A990078491C0A91DDE90F12DF
:101580009047761CBBF10001ABF1010BF1DC214669
:101590005046DDE90F2300F019F806446D1C1BE6E8
:1015A0000928010030313233343536373839616239
:1015B00063646566000000003031323334353637FD
:1015C0003839414243444546000000002DE9F041CE
:1015D000044600251E461746880404D405E0394613
:1015E0002020B0476D1C641EF9D52846BDE8F08167
:1015F0002DE9F041044600251E469046C80301D55A
:10160000302700E02027880404D505E0414638460D
:10161000B0476D1C641EF9D52846BDE8F081000076
:101620002DE9FC411F46DDE90A65DDE90831044684
:1016300004F11400406000601C346260A760E36045
:1016400021610A462321184600F00EFCD4E903016B
:101650004218D4E90101121F0D4B00F0CDFA2060B1
:10166000A67666760020E06125626562606120767C
:101670006065A0651C3C009001902346054A214608
:1016800004F1440001F090F80020BDE8FC81000066
:10169000ED2300083126000810B5029C24F0010457
:1016A0004472C161026200218162436200EBC102A7
:1016B000143252601260491C0129F7DB10BD10B5CD
:1016C000002200EBC2011431D1E900436360D1E98B
:1016D0000034236049600960521C012AF1DB10BD0F
:1016E00070B50446064DE1B22846FFF715FD80218E
:1016F0002846FFF791FC0028F9D0204670BD000075
:10170000001001401CB514200321CDE900104FF456
:1017100000730022064907A000F03FFE0749086059
:1017200018B100F051FF00201CBD4FF0FF301CBD70
:10173000CD2B0008746573740000000024000020A5
:1017400010B500F0E7F8BDE81040FFF7DBBF000080
:1017500030B5134C41682268114402F108038842F5
:101760000DD04D885DB96568A94208D0A5688D4245
:1017700000D1A0604D6845604968851ACD508168E8
:10178000114481420BD04D88002D08D1A5688542B7
:1017900000D1A16044684C604068891AC15030BDD6
:1017A000380000202DE9FF4FDDE90DB60F9D6C06D6
:1017B00002D5DFF814A103E0DFF80CA1AAF1110AA9
:1017C000EC0601D525F00105EC0702D04FF03009F9
:1017D00001E04FF020090027AC070BD5002A02DA00
:1017E0002D27524206E06C0701D52B2702E02C077B
:1017F00000D520270024EE467AB9302201248DF846
:1018000000200CE00A2B15D002F00F081209A446A4
:101810001AF80880641C0EF80C80002AF2D1B44239
:1018200000DD2646ABEB060215F0110F4FF020034A
:1018300009D016E04FF00A0CB2FBFCF80CFB18289C
:10184000B2FBFCF2E3E73FB1002A05DD521E03E0E4
:10185000884200D80370401CB2F1000CA2F10102D2
:10186000F6DC27B1884201D80770521E401CED06F5
:1018700005D508E0884201D880F80090401C151E6C
:10188000A2F10102F6DC302703E0884200D807709D
:10189000401C3546761EA542F7DC05E0884202D89A
:1018A0001EF804500570401C251EA4F10104F5DC4F
:1018B00003E0884200D80370401C141EA2F101020C
:1018C000F7DC04B0BDE8F08F992D00081CB50221AB
:1018D0001420CDE900100B020022044904A000F0FE
:1018E0005CFDBDE81C4000F06FBE00004117000821
:1018F0006D61696E0000000070B5044C044D02E09B
:1019000020688047241DAC42FAD370BDB02D00087A
:10191000B42D000870B5044C044D02E020688047E7
:10192000241DAC42FAD370BDB42D0008B82D0008B8
:1019300010B5FEF757FC044A5188491C5180BDE898
:101940001040FEF753BC00009000002010B5FEF7D9
:1019500049FC094A5188491E09B25180002907DC17
:1019600000215180FEF742FCBDE8104000F01CBB96
:10197000BDE81040FEF73ABC9000002070B500288A
:1019800033D01A4D296888422FD3696888422CD2F7
:10199000A0F10C044FF0FF31154800F0C0FB608847
:1019A0004FF4F55610B12088B04208D011A000F0D5
:1019B0008BF923886288214615A000F085F9002064
:1019C00060802680A868844200D2AC602968606884
:1019D000611A401A2969081A28612046FFF7B8FEE3
:1019E000BDE87040024800F07CBB70BD38000020AC
:1019F000BC140020746F20667265652061206261EE
:101A000064206461746120626C6F636B3A0A000049
:101A10006D656D3A203078253038782C20757365E7
:101A20006420666C61673A2025642C206D616769CB
:101A30006320636F64653A203078253034780A007B
:101A400000487047C400002000487047C4100020C0
:101A500010B513484FF47A710068B0FBF1F0401EE6
:101A6000B0F1807F09D24FF0E02148610D4AF020AB
:101A700010700020886107200861FFF729F9FEF740
:101A800085FCFEF78BFEFFF737FFFFF7DDFF04460F
:101A9000FFF7D6FF2146BDE8104000F0EBBB000089
:101AA0000000002023ED00E070B50446FFF740FF82
:101AB0000F4D16E00A2809D10D212846FFF72CFB0F
:101AC00080212846FFF7A8FA0028F9D014F8011B56
:101AD0002846FFF721FB80212846FFF79DFA0028C2
:101AE000F9D020780028E5D1BDE87040FFF72EBF7F
:101AF0000010014010B5044617480168002903D0C2
:101B000020468847002826D014A0E16900F0DCF8C0
:101B100016A0A16900F0D8F818A0616900F0D4F807
:101B20001AA0216900F0D0F81CA0E16800F0CCF800
:101B30001EA0A16800F0C8F820A0616800F0C4F8F9
:101B400022A0216800F0C0F800F018FD014623A093
:101B500000F0BAF8FEE710BDB00000207073723AD2
:101B6000203078253038780A000000002070633A71
:101B7000203078253038780A00000000206C723A56
:101B8000203078253038780A000000007231323A6F
:101B9000203078253038780A000000007230333A5F
:101BA000203078253038780A000000007230323A50
:101BB000203078253038780A000000007230313A41
:101BC000203078253038780A000000007230303A32
:101BD000203078253038780A00000000686172648F
:101BE000206661756C74206F6E2074687265616424
:101BF0003A2025730A00000070B50646121D22F037
:101C00000700A0F1400528460022094C40F8224078
:101C1000521C102AFAD30162002141628162C16222
:101C20000163436386634FF08071C163284670BDD2
:101C3000EFBEADDE10B5FEF7D5FA044A1178491CA7
:101C40001170BDE81040FEF7D1BA0000340000204A
:101C500010B5FEF7C7FA044A1178491E1170BDE8A5
:101C60001040FEF7C3BA0000340000202DE9F04117
:101C700005460E461446304600F0B9FC06F114073E
:101C800014B1012C1DD104E03946284600F043F878
:101C900017E02C680DE0A4F1140096F8351090F8C8
:101CA0003520914204D23946143000F034F802E075
:101CB0002468AC42EFD1AC4203D13946284600F04B
:101CC0002AF80020BDE8F0810FB408B503AB0093FB
:101CD0007F210548029A00F0FFFD0348FFF7E4FE6C
:101CE00001B05DF814FB00003C1400200268516054
:101CF00002680A60016048607047026851600268CB
:101D00000A600160486070470268516002680A60BA
:101D10000160486070474268116042684A604160F3
:101D2000086070470168814201D10120704700209E
:101D300070470168814201D101207047002070473F
:101D4000D0E900215160D0E90012116040600060CC
:101D50007047D0E900215160D0E900121160406065
:101D6000006070472DE9F047002809D0C01C20F022
:101D700003053B4EF068854204D90020BDE8F0879A
:101D80000020FBE70C2D00D20C254FF0FF31354829
:101D900000F0C5F9B7683168781AD6F80CC0ACEB1A
:101DA000050356E00C1862888ABB6268121A0C3A66
:101DB000AA424DD3626805F11803121A0C3A4FF08B
:101DC00001094FF4F5589A4222D343190C33CA182B
:101DD000A2F800804FF0000AA2F802A0D4F804A0F4
:101DE000C2F804A090606360A4F8029050680CF1FF
:101DF0000C0C604502D001F1080283503069284480
:101E00000C303061726982420ED270610CE01FE0CA
:101E1000A4F802906068621A801A32691044306136
:101E20007269824200D27061A4F80080BC4203D083
:101E300008E040680844B060B068428812B1726837
:101E40009042F6D1074800F04CF904F10C0095E7F8
:101E500060688342A6D8034800F043F900208DE76C
:101E600038000020BC14002010B50346CCB2042A70
:101E700015D3810713D1014644EA042343EA0343FF
:101E800005E00B604B608B60CB601031103A102A7C
:101E9000F7D201E008C1121F042AFBD20B46E1B2BF
:101EA00001E003F8011B521E541CFAD110BD2DE9AC
:101EB000F04106460F46304600F03EF80546E86819
:101EC000FFF750FF0446ACB1267200206072082272
:101ED0003946204600F0BAF9FEF784F9064604F1C7
:101EE0000C01281DFFF702FF3046FEF77FF9204660
:101EF000BDE8F0810020FBE770B50446FEF772F9FB
:101F0000054604F10C00FFF71BFF2846FEF76EF9AB
:101F10002046BDE87040FFF731BD70B50446FEF7BE
:101F200061F9054604F10C00FFF70AFF2846BDE8F9
:101F30007040FEF75BB900000021074A02EB011375
:101F40001B78834202D102EB01107047491C04291F
:101F5000F4DB002070470000500000202DE9F04124
:101F600004460D4617462846FFF7E6FF064645F0AD
:101F70008000207208223946204600F067F9FEF7FB
:101F800031F9054604F10C01301DFFF7AFFE28467C
:101F9000BDE8F041FEF72AB9007A000601D501201C
:101FA000704700207047000070B5FEF71BF905462A
:101FB000174C608820B12846BDE87040FEF716B97E
:101FC000A068FFF7BDF8421E124850F832101439CD
:101FD0006068814216D0227061600F4A127842B167
:101FE0001C311C30FEF705F92846BDE87040FEF7AD
:101FF000FDB81C311C30FEF7FCF82846BDE87040E7
:10200000FEF7F4B82846BDE87040FEF7EFB80000D0
:1020100090000020DC1400203400002010B504469D
:10202000FEF7E0F8024614F8340F20F00F00401CD1
:10203000207060780A49343C01EBC00104F11400BF
:102040004B6818604B684360486001600548A16BAD
:10205000836819438160BDE810401046FEF7C6B89A
:10206000DC1400209000002070B50546FEF7BAF899
:10207000014605F11404D4E900205060D4E90002BF
:1020800010606460246095F835000A4A02EBC000D5
:102090000268824201D1012000E0002020B1064800
:1020A000AB6B82689A438260BDE870400846FEF7D9
:1020B0009DB80000DC140020900000202DE9F041C4
:1020C000054616461F460A4601212846FFF746FFE9
:1020D0002C46143464602460AE836F720020BDE827
:1020E000F08170B504460025FEF77CF8064604F141
:1020F0001400FFF717FE40B1A08B401CA0833046B0
:10210000FEF774F8012D06D007E06069143800F07E
:1021100017FA0125F3E7FFF747FF002070BD73B5FD
:102120000446FEF75FF80646A08B28B1401EA08348
:102130003046FEF75BF821E0019808B300F01EFA84
:10214000054600202863627A294604F11400FFF74F
:102150008DFD0198002809DD05F1440001AA002148
:10216000044600F0F7FA204600F034FB3046FEF754
:102170003DF8FFF719FF286B002800D100207CBD37
:102180003046FEF733F86FF001007CBD08B509A0BA
:10219000FFF79AFD0AA0FFF797FD12A00323009016
:1021A0000022194612A0FFF78FFDBDE8084018A0D5
:1021B000FFF78ABD0A205C207C202F0A0000000067
:1021C0002D205254202D202020202054687265613B
:1021D00064204F7065726174696E672053797374FF
:1021E000656D0A005365702031352032303138007A
:1021F000202F207C205C202020202025642E256498
:102200002E2564206275696C642025730A00000025
:102210002032303036202D203230313820436F705C
:102220007972696768742062792072742D7468729B
:10223000656164207465616D0A000000014600E07C
:10224000491C0A78002AFBD1081A704710B5002AE9
:1022500007D0034611F8014B03F8014B14B1521E8D
:10226000F8D110BD002101E003F8011B521EFBD183
:1022700010BD000070B505460A46E81C20F00301B9
:1022800022F00303182B21D9A3F118048C421DD38B
:10229000114C5A1A183AE26021604FF4F5530B8042
:1022A0000C324A60002088604880486808446060BA
:1022B000038001214180426082600023012207A146
:1022C0000848FFF7FBFE2068A06070BD2946BDE806
:1022D000704005A0FFF7F8BC380000206865617009
:1022E00000000000BC1400206D656D20696E6974EB
:1022F0002C206572726F7220626567696E2061645E
:10230000647265737320307825782C20616E6420A8
:10231000656E64206164647265737320307825781B
:102320000A00000010B50A4B00245C800020094A16
:1023300002EBC00149600960401C0828F8DB072057
:1023400018705C609C6002480C304060006010BDFA
:1023500090000020DC14002010B5074CA068FEF7A8
:10236000EFFE401E054951F8300014386060BDE8AA
:1023700010401C30FDF76BBF90000020DC140020E3
:102380000020044A02EBC00149600960401C00289B
:10239000F8D07047A800002070472DE9FF4780461D
:1023A000DDE90C67894692461D4641460020FFF74D
:1023B0007EFD044620000FD02846FFF7D3FC68B10D
:1023C0008DE8E10053464A4641462046FFF728F98A
:1023D000204604B0BDE8F0870020FAE72046FFF76A
:1023E0008BFD0020F5E700F0CFB8000070B5134872
:1023F0000468FDF7F7FE05462046FFF735FE04208A
:1024000084F8340004F1440000F0BEF92046FFF7E0
:10241000C3FD012801D1206F58B104F1140108480F
:10242000FFF76BFC2846FDF7E1FEBDE87040FFF7C3
:10243000BBBD2046FFF771FDF4E7000094000020CB
:102440009C00002000F002F8FCE7000070B527E0D7
:10245000FDF7C8FE0646FEF7A7FE68B319480468F4
:10246000A4F11405D4E900104860D4E90001086023
:1024700064602460FFF75CFA296F09B12846884739
:102480002846FFF789FD01280FD0FFF75FFA304695
:10249000FDF7ACFEA86AFFF771FA2846FFF72CFD9E
:1024A000FEF782FE0028D3D170BDFFF74FFA304609
:1024B000BDE87040FDF79ABE3046BDE87040FDF7BC
:1024C00095BE00009C0000201FB52020C2000721FF
:1024D000094BCDE90210CDE9003207480023074A35
:1024E00007A1783800F010F804B00348BDE81040A8
:1024F000783800F069B800003C130020452400083B
:102500007469646C650000002DE9FF5F8146DDE9B8
:102510000E76DDE91054884692469B4642460021DD
:102520004846FFF71BFDCDE90076CDE902545B4636
:10253000524641464846FFF773F804B0BDE8F09FA5
:1025400070B5044694F8340000F00F00022802D061
:102550004FF0FF3070BDFDF745FE054604F1140055
:10256000FFF7F7FB04F1440000F09EF92846FDF761
:102570003DFE2046FFF752FD002070BD0148006877
:102580007047000094000020F1B5FDF72BFE0546D2
:102590000C480468204600F02AF804F144006A461A
:1025A0000021064600F0D6F8304600F013F9284620
:1025B000FDF71CFEFFF7F8FC206B801C00D12063A8
:1025C0000020F8BD9400002010B5343081784170AF
:1025D00001228A404260022100F83419FFF7B0FF5F
:1025E000FFF7CCFF08B1FFF7DFFC002010BD70B58E
:1025F000044694F8340000F00F00012802D04FF098
:10260000FF3070BDFDF7EEFD054694F8340020F074
:102610000F00801C84F834002046FFF725FD04F1EC
:10262000440000F041F92846FDF7E0FD002070BDB0
:1026300010B504466FF00100206304F11400FFF7A9
:1026400088FB2046FFF7EAFCBDE81040FFF7ACBC72
:1026500070B5FDF7C7FD06461348046894F83400CA
:1026600000F00F0001281AD1D4E90501884216D0E4
:1026700004F114000546FFF76CFB94F835000B4994
:1026800001EBC00041680D604168696045602860E9
:102690003046FDF7ABFDFFF787FC002070BD3046EC
:1026A000FDF7A4FD002070BD94000020DC14002084
:1026B00001480068704700003000002010B509494B
:1026C0000868401C0860FFF759FF016C491E01644F
:1026D00019B9C16B0164FFF7BBFFBDE8104000F002
:1026E00003B800003000002070B5FFF7E1FF064698
:1026F000FDF778FD054620E015480468143C6FF0AE
:102700000041A06A301A88421CD22046FEF7D7FF4B
:10271000D4E907108847FFF7CBFF0646607A8107A8
:1027200008D5C10706D020F001006072204600F0F5
:1027300051F802E020F0010060720548FFF7F9FA55
:102740000028D9D02846BDE87040FDF74FBD0000F5
:10275000A8000020002909D0012904D0022908D0AE
:1027600003290FD10AE0406A10600BE01168416252
:1027700008E0417A21F00201417203E0417A41F020
:10278000020141720020704770B50546FDF72AFD31
:1027900004462846FEF793FF2046FDF727FD28460E
:1027A000FFF7BBFB002070BD2DE9F8430746DDE9CC
:1027B000088415461E460A4609213846FFF7CEFB17
:1027C00043463246294638460094FEF765FFBDE889
:1027D000F88300002DE9F8430446FDF703FD0546A4
:1027E0002046FEF76CFF607A20F0010060722846F8
:1027F000FDF7FCFCFFF75CFF616A0844A062FDF78F
:10280000F1FC0746DFF89CC0CDF800C000226E4600
:102810000CEBC20045680DE00068A0EBC201A36AA2
:102820004969994204D0C91A6FF00043994205D30F
:1028300046F8220056F82200A842EDD12AB156F8F7
:1028400022100831531C46F82310521C002ADFD0F6
:102850001448001FD0F8008008F10108C0F800807B
:1028600004F114010098FFF74FFA02250EE05FEA29
:1028700088700DD1C5F1010004EBC001143156F888
:102880002000FFF741FA4FEA98086D1C012DEED9A0
:10289000607A40F0010060723846FDF7A7FC002026
:1028A000BDE8F883A800002070B50446607AC00730
:1028B0000ED0FDF797FC05462046FEF700FF2846A0
:1028C000FDF794FC607A20F001006072002070BD7A
:1028D0004FF0FF3070BD00002DE9FF4F83B08246FE
:1028E0000AEB01077F1E5446A74201D24FF0FF3783
:1028F0004FF020094FF0250B12E1252804D0BC42EF
:1029000000D82070641C08E100250599491C059138
:1029100008782D2814D02B2815D0202816D023284D
:1029200017D0302818D04FF0FF384646059A127855
:10293000303A0A2A13D205A800F033F906461AE005
:1029400045F01005E1E745F00405DEE745F0080530
:10295000DBE745F02005D8E745F00105D5E72A2853
:1029600009D1491C0591069840C80690002E02DA4C
:10297000764245F01005059801782E2918D1401CA3
:1029800005900178A1F130020A2A04D205A800F0CE
:1029900008F9804607E02A2905D1401C05900698D1
:1029A00050F8048B0690B8F1000F01DA4FF00008E0
:1029B0000021059A1078682801D06C2802D10146C0
:1029C000521C05920A23059800786F2871D00CDC00
:1029D000632820D004DC25286CD058280DD187E04E
:1029E000642801D0692808D186E0702863D0732854
:1029F0002FD0752871D078287CD0BC4201D884F8BB
:102A000000B0641C05990878002868D0BC4200D842
:102A10002070641C81E0E80605D507E0BC4201D8BF
:102A200084F80090641C761E002EF7DC069810F8DF
:102A3000041B0690C8B2BC4200D82070641C04E09D
:102A4000BC4201D884F80090641C761E002EF7DC8E
:102A500063E0069808C8069003B941A31846FFF73B
:102A6000EDFBB8F1000F02DD404500DD4046E90610
:102A700005D508E0BC4201D884F80090641C3146BA
:102A8000761E8142F6DC002106E0BC4201D81A78AD
:102A90002270641C5B1C491C8142F6DB04E0BC42D2
:102AA00001D884F80090641C3146761E8142F6DC21
:102AB00033E01BE014E0701C02D1082645F001054C
:102AC000CDE9006806980295102304C8069039469F
:102AD0002046FEF767FE04461FE00FE00AE028E00C
:102AE000BC4201D884F800B0641C16E0082305E05D
:102AF00045F04005102301E045F002056C291BD08C
:102B000068291DD0069804C80690CDE900683946AA
:102B100020460295FEF746FE04460598401C0590A7
:102B20000598007800287FF4E8AEBC4211D82070E8
:102B300010E0491E0591F0E7069804C80690E4E706
:102B4000069830F8041B06908AB2A807DDD512B2A9
:102B5000DBE7387007B0A4EB0A00BDE8F08F000097
:102B6000284E554C4C29000000207047002070472B
:102B7000002070470020704710B5FDF733FBFEF7CB
:102B800067FFFFF703FBFFF7FBFBFFF7CBFBFEF74E
:102B90009DFEFFF701FCFFF797FCFFF7DDFB002030
:102BA00010BD10B5024600206FF02F0407E04B1C4B
:102BB0001360097800EB800004EB400008441168C2
:102BC0000B78303B0A2BF2D310BD000012A0FFF7A8
:102BD0007BF8FDF7C9FF4FF400611A4C4A004D1015
:102BE000A61C012813D03580218022804FF4FA776B
:102BF00035803846FFF7F7FB13A0FFF765F825800F
:102C00003846FFF7F0FB18A0FFF75EF8F0E72580E5
:102C100031802280EAE700000D0A20D5E2CAC7D23F
:102C2000BBB8F6493243CDE2C9E8284154323443B7
:102C3000303229B6C1D0B4B2E2CAD4C0FDB3CC2080
:102C40000D0A0000181C0240746573745F7468728A
:102C50006561642072756E6E696E672C4C454431F7
:102C60005F4F4E0D0A000000746573745F746872E4
:102C70006561642072756E6E696E672C4C454431D7
:102C80005F4F46460D0A00000000010002000100EF
:102C90000300010002000100040001000200010025
:102CA0000300010002000100050001000200010014
:102CB0000300010002000100040001000200010005
:102CC00003000100020001000600010002000100F3
:102CD00003000100020001000400010002000100E5
:102CE00003000100020001000500010002000100D4
:102CF00003000100020001000400010002000100C5
:102D000003000100020001000700010002000100B1
:102D100003000100020001000400010002000100A4
:102D20000300010002000100050001000200010093
:102D30000300010002000100040001000200010084
:102D40000300010002000100060001000200010072
:102D50000300010002000100040001000200010064
:102D60000300010002000100050001000200010053
:102D70000300010002000100040001000200010044
:102D800003000100020001003031323334353637A0
:102D90003839616263646566003031323334353608
:102DA000373839414243444546000000752B00083E
:102DB0006D2B0008692B0008712B0008DC2D000822
:102DC00000000020C400000088110008A02E0008A8
:102DD000C40000205C180000981100080095BA0A91
:102DE00000000000000000000102030406070809BB
:102DF00000000000010203040102030406070809A1
:102E0000000000000000000000A000000000000022
:102E100000000000000000000000000000000000B2
:102E200000000000000000000000000000000000A2
:102E30005400002054000020780000000100000031
:102E40006400002064000020200000000400000056
:102E50007400002074000020300000000900000011
:102E600084000020840000202C00000000000000EE
:102E70000000000000000000000000000000000052
:102E80000000000000000000000000000000000042
:102E90000000000000000000000000000000000032
:04000005080001AD41
:00000001FF
